:400000000080002011000000290A0000290A000080B500AF024A034B1B68136000F00EFDBC760040FA46004010B5054C237833B9044B13B10448AFF300800123237010BDA6
:400040004881FF1F0000000008130000084B10B51BB108490848AFF300800848036803B910BD074B002BFBD0BDE81040184700BF000000004C81FF1F08130000C880FF1FCC
:4000800000000000B0B590B000AF62B600F04AFE00220221102000F0B1F800F03FF95349002000F0EFF900F037FA0021002000F03FF94F4B07F130040FCB07C4237007F152
:4000C0003003184601F017F90346DAB207F130031146184600F066F90121002000F028F90821444800F05EF9002000F003F94FF4FA6000F043FD404B3C1D1D460FCD0FC44C
:400100000FCD0FC495E8070003C4228000F0EEF9002387F83F3009E000F014FA642000F02DFD97F83F30013387F83F3097F83F30092BF1D9002387F83E3009E000F00AFAAD
:40014000642000F01BFD97F83E30013387F83E3097F83E30092BF1D900F052FA4FF47A7000F00CFD00F036FA4FF47A7000F006FD00F072FA4FF47A7000F000FD00F056FA82
:400180004FF47A7000F0FAFC00F0ECF94FF47A7000F0F4FC00F006FA4FF47A7000F0EEFC00F0BAF900F0BAF800220021FF2000F015F9642000F0E2FC0022FF21002000F00A
:4001C0000DF9642000F0DAFCFF220021002000F005F9642000F0D2FCFF22FF21FF2000F0FDF8642000F0CAFC5DE700BFCC80FF1F181300000C1300002813000080B582B045
:4002000000AF0346FB710B46BB7113467B71BB79012B06D9284B1B7843F00803DAB2264B1A70264ABB791370254B00221A7000F079FD322000F0A2FC1F4B1B7843F02003B2
:40024000DBB2184600F042F8052000F097FC1A4B1B7843F02003DBB2184600F037F8012000F08CFC144B1B7843F02003DBB2184600F02CF8134B04221A7000F07DF800F026
:400280004DF8114B02221A700F4B1B7843F00403DBB2184600F01AF80021002000F0BAF80021012000F0B6F8AA21082000F0B2F800BF0837BD4680BD6A81FF1F6881FF1F3D
:4002C0006581FF1F6781FF1F6981FF1F80B584B000AF0346FB7180233B73FB797B7307F10C030221184600F0B5F800BF1037BD4680BD00BF80B584B000AF0346FB71402312
:400300003B73FB797B7307F10C030221184600F0A1F800BF1037BD4680BD00BF80B500AF0120FFF7D3FF022000F028FC00BF80BD80B584B000AF03460A46FB711346BB71F6
:40034000BB79002B04D1FB7963F07F03DBB203E0FB7963F03F03DBB2FB7180233B73FB797B7307F10C030221184600F073F800BF1037BD4680BD00BF80B500AF084B1B7829
:4003800043F00403DAB2064B1A70054B1B7843F00803DBB21846FFF799FF00BF80BD00BF6781FF1F80B584B000AF78600B46FB700023FB7309E0FB7B7A6813441B7818467B
:4003C000FFF798FFFB7B0133FB73FA7BFB789A42F1D300BF1037BD4680BD00BF80B582B000AF0346FB710B46BB7113467B71FB791946042000F00EF8BB791946032000F0AB
:4004000009F87B791946022000F004F800BF0837BD4680BD80B584B000AF03460A46FB711346BB71FB793B73BB797B7307F10C0100230222622000F061FE00BF00F0E2FE8A
:40044000034603F00403002BF8D100BF1037BD4680BD00BF80B582B000AF78600B46FB70FA78002379683E2000F048FE00BF00F0C9FE034603F00403002BF8D100BF0837E1
:40048000BD4680BD80B586B000AF03463960FB71FB7903F00703FB71FB79DB005BB243F040035BB2DBB21846FFF710FF40233B7200237B610DE07B6901337A6939680A4402
:4004C000127807F118010B4403F8102C7B6901337B617B69072BEEDD07F1080309211846FFF7B8FF00BF1837BD4680BD80B500AF084B1B7843F00103DAB2064B1A70054BC8
:400500001B7843F00403DBB21846FFF7DFFE00BF80BD00BF6981FF1F80B500AF084B1B7823F00103DAB2064B1A70054B1B7843F00403DBB21846FFF7C9FE00BF80BD00BFA5
:400540006981FF1F80B500AF1820FFF7BFFE00BF80BD00BF80B500AF1C20FFF7B7FE00BF80BD00BF80B500AF0D4B1B78302B0CD12A210420FFF74EFF06210120FFF74AFF23
:400580007F210220FFF746FF07E017210720FFF741FF7F210620FFF73DFF00BF80BD00BF6681FF1F80B500AF094B1B78302B04D115210420FFF72EFF07E000210720FFF76D
:4005C00029FFFF210620FFF725FF00BF80BD00BF6681FF1F80B500AF084B1B7823F00203DAB2064B1A70054B1B7843F00803DBB21846FFF76BFE00BF80BD00BF6781FF1F3E
:4006000080B500AF084B1B7843F00203DAB2064B1A70054B1B7843F00803DBB21846FFF755FE00BF80BD00BF6781FF1F80B500AF084B1B7823F00103DAB2064B1A70054BA3
:400640001B7843F00803DBB21846FFF73FFE00BF80BD00BF6781FF1F80B500AF084B1B7843F00103DAB2064B1A70054B1B7843F00803DBB21846FFF729FE00BF80BD00BF7E
:400680006781FF1F80B582B000AF786039603A680021786800F027FE00BF0837BD4680BD80B584B000AFF860B9607A607A68B968F86800F00DFE00BF1037BD4680BD00BFF1
:4006C00080B483B000AF0346FB71FEE780B487B000AF7860396000233B6100237B6127E07B699B007A6813441B68BB60BB68FB73BB6823F0FF03BB6014E03B695B003A682B
:4007000013441B781A46BB68134419463B695B003A6813445B780B703B6901333B61FB7B013BFB73FB7B002BE7D17B6901337B617B69162BD4D900BF1C37BD4680BC704795
:4007400080B582B000AF334B19221A80324B18221A70324B77221A80314B18221A70314B02221A704FF0402308221A702E4B03221A702E4B2E4A1278D2B21A702D4B08220C
:400780001A802D4B41F251221A800023FB7019237B6014E0FB785B00DAB2284B1B78DBB203F00103DBB21343DBB203F00303FB704FF4F07000F050FD7B68013B7B607B68D9
:4007C000002B02D0FB78032BE4D17B68002B02D10320FFF775FF1A4B4FF480721A80184B07221A70174B00221A70174B48221A70134B00221A70154B02221A70144A144BB5
:400800001B78DBB243F00303DBB2137000BF0837BD4680BD804000408240004084400040864000400043004000420040A1460040080100492242004020420040254200409A
:4008400004400040064000400840004001400040A243004080B483B000AF0B4B1B78FB710A4AFB7903F00703DBB21370084AFB791B09DBB21370074B44221A7000BF0C37C2
:40088000BD4680BC704700BFCF0100496E5800406F5800407658004080B586B000AF72B64D4A4D4B1B78DBB243F00403DBB213700023FB7513E0FA7D13465B0013445B0011
:4008C000464A13443B613B691A683B699B889BB219461046FFF7D6FEFB7D0133FB75FB7D082BE8D90023FB751CE0FA7D13469B0013445B003A4A1344FB60FB681B68BB6051
:40090000FB685B687B60FB681A7A5B7A1B0213437B807B881A467968B868FFF7C1FEFB7D0133FB75FB7D012BDFD92E494FF09040FFF7CCFE2C4A2C4B1B78DBB243F0020360
:40094000DBB21370294A294B1B78DBB243F00203DBB21370264A264B1B78DBB243F04003DBB21370234A234B1B78DBB243F01003DBB21370082220492048FFF791FE0A2294
:400980001F492048FFF78CFE08221F491F48FFF787FE08221E491F48FFF782FE1E4A1E4B1B78DBB243F00803DBB213701B4B61221A70FFF7C5FE194B81221A70184B012283
:4009C0001A70FFF747FF0E2209491648FFF768FE00BF1837BD4680BDE8460040541300008C1300005C0000480350014013500140A0430040C24300403805004802510040D7
:400A000040050048C05100404C050048125100405405004822510040224300400048004004000840B043004080B500AF00F024FC03461B680C2B00D1FEE7FEE780B586B09F
:400A400000AF224B7B61224B3B61204B7B6135E03B691B68FB603B695B68BB603B699B683B6000237B600CE0FB681A68BB681A60BB680433BB60FB680433FB607B680433E3
:400A80007B607A683B689A42EED13B69DB683B6000237B6008E0BB6800221A60BB680433BB607B6804337B607A683B689A42F2D13B6910333B617B69013B7B617B69002BF8
:400AC000C6D100F0DFFBFFF7DDFAFEE701000000C813000080B582B000AF184B184A1A60184A184B1B6843F40073136000237B600FE07B68032B04D8134A7B6852F8233096
:400B000000E0124B12497A6841F822307B6801337B607B682F2BECD90E4B1B78DAB20E4B1A700E4B0A4A1A60FFF7B6FE0C4B00221A6000BF0837BD4680BD00BF0CED00E0C7
:400B40000004FA0514ED00E000000000290A00000080FF1FBC760040C480FF1F08ED00E0C080FF1F80B483B000AF0346FB7101BE00BF0C37BD4680BC704700BF80B582B011
:400B800000AF786008E00C4B1B68184600F064FB7B68A3F500437B607B68B3F5004FF2D8064B1B687A6802FB03F3184600F054FB00BF0837BD4680BDE080FF1FD880FF1F8A
:400BC00080B584B000AF03463960FB710F4B1B68FB60FB791F2B02D90020FFF7C3FFFB7903F01F0310339B00FA6813441B68BB60FB7903F01F0310339B00FA6813443A6866
:400C00001A60BB6818461037BD4680BD08ED00E080B582B000AF03460A46FB711346BB71BB79072B02D90020FFF79CFFFB791F2B02D90020FFF796FFFB7903F01F0303F10A
:400C4000604303F56443BA795201D2B21A7000BF0837BD4680BD00BF80B500AF144B02221A70144B81221A70134B08221A70134B0F221A70124B00221A70124B4FF400420E
:400C80001A6007210F20FFF7C3FF0F490F20FFF797FF0E4B10221A700D4B00221A700D4B00221A700C4B00221A7000BF80BD00BFD6490040C8490040CA490040DB49004056
:400CC000DC49004080E100E0550D00006B81FF1F6D81FF1F7481FF1F6E81FF1F80B582B000AF00F0C1FA0346FB710C4A0B4B1B78DBB243F00403DBB21370094A084B1B78F1
:400D0000DBB243F00403DBB21370FB79184600F0AFFA00BF0837BD4680BD00BFA5430040B543004080B500AF084B1B78002B04D1FFF792FF054B01221A70FFF7CFFF044BB3
:400D40004FF400421A6000BF80BD00BF6481FF1F00E100E080B582B000AFA74B1B78FB71A64B1B78DBB203F04003DBB2002B00F0A981FB7903F00103002B00F080819F4B64
:400D80001B78DBB2453B052B00F2758101A252F823F000BFAD0D0000D30E00007710000077100000AD0D0000BF0F0000FB7923F02003FB71FB7903F00A03DBB2082B46D12A
:400DC0008E4B1B78DBB2452B3AD18D4B1B78DBB2002B0FD08B4A8C4B1B681B78DBB21370854B04221A70894B01221A70834B46221A7044E1864B1B78DBB203F00203002BB1
:400E00000FD0844B1B78DBB243F00A03DAB2814B1A707A4B60221A707F4B4FF400421A602DE17E4A7D4B1B78DBB243F01003DBB213707B4B10221A706F4B04221A701EE129
:400E40006D4B00221A706D4B4A221A7017E1FB7903F00A03DBB20A2B37D16E4B1B78DBB263F05F03DAB26B4B1A70694B1B78DBB203F00203002B19D0604B1B78DBB203F032
:400E80000803002B01D0092300E00A23DAB2614B1B78DBB21343DAB25E4B1A70574B60221A705D4B4FF400421A60E8E05B4A5B4B1B78DBB243F01003DBB21370584B1022D2
:400EC0001A704D4B04221A70D9E00020FFF74AFED5E0FB7903F00203002B42D14B4B1B78DAB2474B1B78DBB29A4214D2454A464B1B6846490978C9B20B441B78DBB2137061
:400F00003D4B04221A70414B1B78DBB20133DAB23E4B1A70B3E03E4B1B78DBB203F00203002B0FD03B4B1B78DBB243F00A03DAB2384B1A70314B60221A70374B4FF40042AE
:400F40001A609CE0354A354B1B78DBB243F01003DBB21370324B10221A70274B04221A708DE02B4B1B78DBB203F00203002B0FD0284B1B78DBB263F06503DAB2254B1A70D2
:400F80001E4B60221A70244B4FF400421A6076E0224A224B1B78DBB243F01003DBB213701F4B10221A70144B04221A70194B1B78DBB263F06F03DAB2164B1A705FE0194B11
:400FC0001B68194A1278D2B213440E4A1278D2B21A70154B1B78DBB20133DAB2124B1A70114B1B78DAB2114B1B78DBB29A421FD2014B10221A7042E0D74900406B81FF1F37
:401000006C81FF1FD84900407081FF1F6E81FF1F7581FF1F6D81FF1F80E100E0D6490040D94900407881FF1F7481FF1F7C81FF1F2C4B1B78DBB203F00203002B0FD02A4BB3
:401040001B78DBB243F00903DAB2274B1A70274B60221A70264B4FF400421A600FE0254A244B1B78DBB243F01003DBB21370224B00221A7003E00020FFF774FD00BFFB79A2
:4010800003F02003002B28D0184B1B78DBB203F00803002B01D0012300E00223DAB2124B1B78DBB21343DAB20F4B1A70114A114B1B78DBB223F01003DBB213700B4B1022ED
:4010C0001A700AE0094B1B78DBB203F01003DBB2002B02D1054B10221A7000BF0837BD4680BD00BF7581FF1F6D81FF1F6B81FF1F80E100E0D6490040D749004080B485B0DB
:4011000000AF396011461A460346FB710B46BB7113467B710223FB733B68002B56D02E4B1B78DBB2102B0CD12C4B1B78DBB203F00803002B02D10023FB7315E00123FB7356
:4011400012E0254B1B78DBB2602B0DD10023FB73234B4FF400421A60224B1B78DBB223F00803DAB21F4B1A70FB7B002B2ED11A4B45221A701C4B00221A701C4ABB79137035
:401180001B4A3B6813601B4A7B791370154B1B78DBB223F00203DAB2124B1A70164AFB795B00DBB213707B7903F00103002B06D00A4B12221A70114B04221A7002E0074B4F
:4011C00001221A700E4B4FF400421A60FB7B18461437BD4680BC70476B81FF1FD949004080E200E06D81FF1F6E81FF1F6C81FF1F7081FF1F7581FF1FD8490040D74900401F
:4012000000E100E080B483B000AF0E4B4FF400421A600D4B1B78FB710C4B1B78DBB203F04003DBB2002B03D0FB7943F00403FB71074B4FF400421A60FB7918460C37BD466D
:4012400080BC704780E100E06D81FF1F6B81FF1F00E100E0000000000230800803D000BF01380046FCD17047EFF3108072B6704780F31088704700BF014B1868704700BF00
:401280004481FF1F0E4B70B51E460E4C0025E41AA410A54204D056F8253098470135F8E700F080F8084B094C1E46E41AA4100025A54204D056F8253098470135F8E770BD1C
:4012C000B0130000B0130000B0130000B813000010B5431E0A44914204D011F8014B03F8014FF8E710BD03460244934202D003F8011BFAE77047034613F8012B002AFBD118
:40130000181A01387047000000000000536D696C65793A200000000048656C6C6F2C2050536F4321000000005363726F6C6C202D2D3E204D79206A6F75726E6579206861E6
:401340007320636F6D6520746F20616E20656E642E000000C84900401900305100404000F05100401000000001400010001401400006801A0140800100400140000A004CE4
:4013800001400002005001402000000060520040B00400480600001A0140B8040048800043000000F8B500BFF8BC08BC9E4670474D000000D50A0000F8B500BFF8BC08BC94
:4013C0009E46704729000000D8130000C880FF1F800000003800000000000000000A0A00110E000000366E01C05D0000180000000000E02E00000000000000000000000005
:401400000000000000000000000000000000000000000000A013000000000000000000000000000000000000000000000000000000000000000000000000000000000000F9
:401440000000000000000000000000000000000000000000E480FF1F00000000000000000000000000000000000000000000000000000000000000000000000000000000EA
:40148000000000000000000000000000000000000000000000000000000000000000000000000000000000000000000000000000000000000000000000000000000000002C
:4014C00000000000000000000000000000000000000000000000000000000000000000000000000000000000000000000000000000000000000000000000000000000000EC
:4015000000000000000000000000000000000000000000000000000000000000000000000000000000000000000000000000000000000000000000000000000000000000AB
:40154000000000000000000000000000000000000000000000000000000000000000000000000000000000000000000000000000000000000000000000000000000000006B
:020000040003F7
:0200000480007A
:400000000252004002640040036500404C0201402A0301404B0401402A0501400207014003150140011701405518014036190140221A0140451B01400B4101400642014073
:40004000024301400348014010490140084C01400C4D014005500140015101400008011C830F850F880F89388A7202010A021A011F02230227012C02310132023502360143
:400080004050410249FF4AFF4BFF4DA04F045018580459045A045C115D015F01604062C06440654066C068C06AC06CC06EC092019E029F01A101A204AA02B004B402B601E3
:4000C000B701BE10C010C106C5D5C601C702C817C9FFCAFFCBFFCDAFCE0FCF04D018D280D407D804D904DA04DB04DC11DD11DF01E040E2C0E440E540E6C0E8C0EAC0ECC05E
:40010000EEC00401060809020A020C20108012041780180119021A061B801E201F4022402408278029022E082F803080368040014604482849014E015088528459115A84BD
:40014000710280048740C050C249C48ACAC1CC18D028D214D60F00010A021A021B0126013202340137013E044030410249FF4AFF4BFF4DA04F045018580459045A045C111D
:400180005D015F01604062C06440654066C068C06AC06CC06EC087048B04950296029A029B03AE01B002B102B201B501B704C030C102C5D1C620C705C81BC9FFCAFFCBFFB0
:4001C000CDAFCE0FCF04D018D280D407D804D904DA04DB04DC11DD11DF01E040E2C0E440E540E6C0E8C0EAC0ECC0EEC0001109200D080F041020174019181C101D092001A3
:400200002440254027083020362037083C103E084010412045284D014E204F04552056085C405D095E20774081019D109E08A020A210C00AC262C484CC64CE60D066D6F041
:40024000B140EE20E008E401EA05E2040180050307440E0813081421152A160E1744181C19731A231B0C1E1C244026032755282129732A162B043140321A330F340F358033
:4002800036603730388039803A283B083F5140234106450C47EB483149FF4AFF4BFF4EF04F44500C5401580459045A045B045F0166C06A406B0284A786188A048B018CBF57
:4002C00090049240941898089C109F02A01CA2A1AA23AB01AC3CAE82AF02B01FB280B440B501B638B702B808BA02BF50D418D804D904DB04DF0100480120048009280A0154
:400300000B800E2A120113111410171019E11B081E2A1F0421802220279929412A012B082C102D102F2430803605371439203D013E023F04441047104D104E104F04560654
:400340005A225B205D015FA861806220C087C2EFC46BCA6CCCE8CEC4D060D220D6F1D80CE2048410860C940C961198209A039C099E10A010A41CA602A814B220B41FBB021D
:40038000BE04C004C540C9FFCA07CBFFCC40CD20CEF0CF05D008D804D904DA04DF01E040E1A8E240E320014207100A040E2A102A150116041704180119161A141B011E08CA
:4003C0001F08200C225523012440260229112B013104325238283A023B80404542104701488049804C404D01511057205A085E105F10682869407014712872038708880288
:400400008B4094C095209603979199819A049B15A211A484A528A720C029C2E2C477CA0DCC0FCE0FD08FD208D602E008E403EA05501051025C10631080108710D4A0D62007
:40044000D840E210E6803E1080109420A502CE20E2209610B10282209610E2201220164072207710822086409A209B10AA10AB10C430DC80DE20E010E480EAA0108013206E
:4004800017087B107F408080C40EDE031080740483108404874088809780A710AB28C408DE04E601000208020A0210011C0103C0828000004300000088086200000C0000AC
:4004C000000400000111000000FF00000000007302F31C0C008F0070008C0073CF000000CF3300004422A200C03001800E0F304C000000A0000040042304050001C0E000C5
:400500000AFFFFFF62A0F0410C0000000000021204040404000000010000000000004002001030100010101200000000000000000000000000000000001E1E001E00000032
:40054000830040808300830000000000F0FB0B0000000000001F1F0000000000000000000000000000000000000000000000000000000000000000000000000000000000FE
:40058000000000000000000000000000000000000000000000000000000000000000000000000000000000000000000000000000000000000000000000000000000000003B
:4005C00000000000000000000000000000000000000000000000000000000000000000000000000000000000000000000000000000000000000000000000000000000000FB
:4006000000000000000000000000000000000000000000000000000000000000000000000000000000000000000000000000000000000000000000000000000000000000BA
:40064000000000000000000000000000000000000000000000000000000000000000000000000000000000000000000000000000000000000000000000000000000000007A
:0200000490006A
:0400000000004005B7
:0200000490105A
:04000000BC90ACAF55
:0200000490303A
:0200000046FCBC
:0200000490402A
:4000000000000000000000000000000000000000000000000000000000000000000000000000000000000000000000000000000000000000000000000000000000000000C0
:400040000000000000000000000000000000000000000000000000000000000000000000000000000000000000000000000000000000000000000000000000000000000080
:400080000000000000000000000000000000000000000000000000000000000000000000000000000000000000000000000000000000000000000000000000000000000040
:4000C0000000000000000000000000000000000000000000000000000000000000000000000000000000000000000000000000000000000000000000000000000000000000
:0200000490501A
:0C00000000012E16106900012E1F57652C
:00000001FF