:400000000010002011000000290400002904000008B500F00BFAC04610B5124C23688022D20213432360182000F0BEFA22680E4B134023600D4A0E4B1A6010220D4B1A60A9
:40004000802212060C4B1A600C4A0D4B1A6009200C4900F04FFA092000F036FA00220A4B1A6010BD00010B40FFFFFBFF0600008004010B400C02024008010B4014000080BD
:4000800000000240B90700000C020B4010B572B6002410E01F4863001A195200821891881B195B001A5AC31858880004104300F005FA0134E4B2012CECD9EE221204164B9A
:4000C0001A60EE221202154B1A6099231B04144A1360144A1360144B197802220A431A70124802783C218A4328390A430270197816220A431A7030220D4B1A6090229202F8
:400100000C4B1A60D82212010B4B1A60FFF784FF10BDC046F40F0000000001400C00014000500F4030500F4000700F4001700F4000000440080004400803044010B5064C51
:400140002378002B07D1054B002B02D0044800E000BF0123237010BDE800002000000000A40F000008B5084B002B03D00748084900E000BF07480368002B00D108BD064B51
:40018000002BFBD09847F9E700000000A40F0000EC000020C80000200000000008B500F073FB114B187814210422002300F026F800F0DEF80D4800F0CBF80020012100F050
:4001C00093F80B4800F0C4F80020022100F08CF8084800F0BDF80020032100F085F8064800F0B6F862B6FEE7CC000020A80F0000B80F0000C80F0000D80F000010B5064CF0
:4002000020700648017006490A70064A13700822054B1A7010BDC046290100202E0100202F0100202B0100202801002010B50C1C002100F09FFB201C00F04EFC00F006FC7E
:4002400010BDC04608B5054B1A78054B1B78011C1943101CFFF7EAFF08BDC046290100202801002010B5041C04202043FFF7EAFF012000F08FF90423201C9843FFF7E2FF4E
:40028000322000F087F910BD10B5041CFFF7DAFF201CFFF7E7FF10BD38B50D1C0F23021C9A43131C0001C4B20B43181CFFF7ECFF201C2843FFF7E8FF38BDC04608B500216D
:4002C000FFF7EAFF08BDC04608B50120FFF7F6FF022000F047F908BD08B50220FFF7EEFF022000F03FF908BD70B584B06B460C4A70CA70C31C1C136823600A4B1B789942DD
:4003000001D9591EC9B289006B46CB58C01880235B421843C0B2FFF7D1FF04B070BDC046E40F00002F01002008B5054A107804231843107004331843FFF7C0FF08BDC04617
:400340002A01002008B50121FFF7A6FF08BDC04670B5061C00F01EFE051C002403E0305DFFF7F0FF0134EBB2A342F8D870BDC04610B50022254B1A70254B1B78012B02D95B
:400380000821224A1170234A1278002A06D0012B04D11E4A117804230B431370322000F0E1F81D4B1878FFF74DFFFA20800000F0D9F83020FFF768FF184C201C00F0EAF877
:4003C0003020FFF761FF201C00F0E4F83020FFF75BFF962000F0DEF82020FFF755FF0B4B187820231843FFF769FF04220C4B1A70FFF79AFFFFF768FF02220A4B1A700620AB
:40040000FFF75CFFFFF768FF10BDC0462D0100202F0100202B01002028010020941100002A0100202C010020FEE7C04670B50F4E0F4D13E029686B68AC68002202E001C9C9
:4004400001C30432A242FAD1E868002202E0002102C304328242FAD11035013E002EE9D100F06AFDFFF79AFEFEE7C046010000005410000008B500230AE0032B03D89A00C6
:400480000A49505800E00A4899000A4A885001332F2BF2D9FFF7FAFD0022074B1A608022D205116801230B43136008BD000000002904000000000020C000002008B50A1C6A
:4004C000002100F05FFD08BD1F2318401E3B8340181C014B1860704700E100E01F2318401E3B8340181C014B1860704780E100E001BE704738B5041C0D1C1F2802D9002010
:40050000FFF7F6FFA400034B9C4664442068256038BDC0464000002070B5041C0E1E032E02D90020FFF7E4FF1F2C02D90020FFF7DFFF03252540ED00063500F023FBA408ED
:40054000A400074B9C46644423680322AA409343AE40351C1D43256000F018FB70BDC04600E400E010B5041C06E0084B186800F0FFFA074B9C46644480231B029C42F4D8A0
:40058000024B5868604300F0F3FA10BDD00000200080FFFF08B5034B1B7A584300F0E8FA08BDC046D0000020F0B557464E46C0B483B0041C00F0E6FA0190E71E2D2F74D800
:4005C0003F4B1B78DBB2A34208D33E4B1B78DBB29A463D4B1B78DBB2994631E03B4B1B78DBB2A34208D33A4B1B78DBB29A46394B1B78DBB2994623E0374B1B78DBB2A34278
:4006000008D3364B1B78DBB29A46354B1B78DBB2994615E0334B1B78DBB2A34208D3324B1B78DBB29A46314B1B78DBB2994607E02F4B1B78DBB29A462E4B1B78DBB29946BB
:400640002D4BDE5D2F2E09D92A2C07D919222B4B1A60052000F08CFA192503E0274B1D683F231D40AE4206D2234BDA5D234B1A60052000F07DFA1F4B9C4664442378DBB2B8
:400680001F4A13601F4B52461A601F4B4A461A600520FFF77FFFAE420AD9174BDA5D174B1A60052000F064FA02E00020FFF720FF019800F06BFA03B00CBC91469A46F0BD36
:4006C000C0F1FF0FC1F1FF0FC2F1FF0FC3F1FF0FC4F1FF0FC5F1FF0FC6F1FF0FC7F1FF0FC8F1FF0FC9F1FF0FCAF1FF0FCBF1FF0FCCF1FF0FCDF1FF0F001000002CFF0B40A7
:4007000028FF0B401CFF0B4020FF0B40034B1868C0231B02184000D00120704700010B4008B500F02FFA044A1368C02109020B43136000F02BFA08BD00010B4010B500F036
:4007400021FA08490A68084B1A408024E40122430A600A6813408022120213430B6000F015FA10BD00010B40FF3FFFFF70B5061C00F008FA041CFFF7C9FF002803D0FFF7FE
:40078000DDFF012500E000250848331C0340084A106808490840184310601368012D01D1FFF7BEFF201C00F0F1F970BD0404040010020B40FBFBFBFF10B5244B1B685B073F
:4007C00015D5234B1B685B070ED5224B9969042001401F4C22688A4322609A6982439A61DB68002B00D098470420FFF7BFFF174B1B685B0518D5164B1B685B0510D5154B4E
:4008000099698022D2001140114802688A4302609969114A0A409A611B69002B00D098478020C000FFF7A2FF084B1B685B030CD5074B1B685B0304D5064B5B69002B00D0D7
:4008400098478020C002FFF791FF10BD10020B40E000002004010020FFFBFFFF08B50B20FFF732FE08BDC04608B500F01DF808BD08B5044A1368802109060B431360FFF71D
:40088000EDFF08BD0000074008B5064B1B78002B04D1FFF7E9FF0122024B1A70FFF7E8FF08BDC0462001002010B51D4A11680C230B43136000241B4B1C601B4A1B4B1A60FE
:4008C0001B4B1C4A13601C4A14601C4A14601C4A13601C4B1C600B20FFF700FE0B200321FFF71AFE0B201849FFF704FE174B1C60174B1C60174B1C601422FF32164B1A606D
:40090000164B1C60164B1C60043AFF3A154B1A70154B1C80154B1C60154B1C6010BDC04670000740000007406408008060000740070100800003074004030740100307400A
:400940000002074004020740990B0000C80E0740880E0740480F0740080F0740C80F0740880F07403001002040010020500100203801002038B52E4B1B78102B53D12D4BFF
:400980001B68DB0751D40D1C041C0B20FFF7A6FD6000FF231840002D03D12422244B1A7004E02522224B1A7001231843224B1860224A234B1A600222224B1A60204B1A68B4
:4009C0000823FF331A42F9D01D4B1B685B0714D41B4B1B689B0713D4194B1B68DB0705D51022134B1A70012001210BE01022104B1A7080204000012104E00020002101E0C4
:400A0000022000210822FF320D4B1A6000290DD00D4A13685B005B0813601368802109060B43136002E0042000E0082038BDC04630010020640007404002074017030000A9
:400A4000000F074068000740000007401D4B1B789B0634D51C4B1B689B0601D5182200E010221A4B1A601A4B1A681223FF331A42F9D0174B1B68DB0606D4154B1B68DB0721
:400A800005D50120012105E00020002102E08020400001211222FF320D4B1A60023AFF3A084B1A7000290BD00A4A13685B005B0813601368802109060B43136000E0042092
:400AC0007047C046300100206400074068000740000F074000000740214B1B789B063CD5204B1860204B1A680823FF331A42F9D01D4B1B685B0705D56022194B1A70002037
:400B0000002119E0184B1B689B0705D56022144B1A70022000210FE0134B1B68DB0705D510220F4B1A700120012105E010220C4B1A708020400001210822FF320A4B1A6082
:400B400000290BD0094A13685B005B0813601368802109060B43136000E004207047C0463001002040020740000F0740000007400230800804D0C0460138FDD1C046C046A7
:400B8000C0467047EFF3108072B6704780F310887047C046C046C04610B5C04B1B68002B00D09847BE4B1B68DB0702D50022BD4B1A60BD4B1B789B0628D5BC4B1B68DB059A
:400BC00007D5BB4A1188C0239B000B431380012300E00023B54A1268D20706D5B44A118890239B000B4313800123002B0FD0AE4A1278D20701D5012200E00222AC490888F7
:400C000002430A800021A84A117000E00023A64A1278920600D414E1A44A1268D20611D51022A44B1A60A04B1B78DB0701D5012300E002239E4A11880B43138010229A4BDA
:400C40001A7029E1984A1278120720D5974A126892070AD50222974B1A60954A118888239B000B431380012311E08F4A1278D20703D525218C4A117009E024218A4A11702B
:400C80008D4A1268002A02D014398C4A1160864A1278520700D4ABE0834A1278D20749D5874A1268120727D5864A1268864909680F240C40854909686418141B082C09D88B
:400CC000002C16D1824A1168824B0B401360012308340EE008240CE07C4A11687E48006841187E480068C0B20870116801311160013C002CF0D119E0714A1268520715D516
:400D0000724A116874480068411874480068C0B2087011680131116011686A4A1268914203D204216E4A116000E001236D496E4A11605DE05D4A1268920726D502225D4B99
:400D40001A606A4A13680F211940136880221202134000D00123CB18654A1168CB1A13601268644B1A60524A118884239B000B431380614B1A68802149020A431A60196809
:400D80005E4A0A401A60012332E05D4A1268D20612D424E0564A1168474A1268914211D2534A11685748006841180978C9B2564801601168013111604C4A12680F210A40BD
:400DC000082AE7D14A4A11683B4A1268914202D140213A4A11604D494D4A116008E0484A1268520604D5424B1A68424B1A600123002B51D0364A1168364B0B40136000235D
:400E0000444A13602D4A1360434B1B789B070ED5254B1B78DB0701D5092300E00A23244A11880B43138060221F4B1A7034E03B4B1B689B0601D5182200E01022284B1A6002
:400E40002AE0194B1B78DB0626D4354A13685B005B0813601021144B19701D4B18683149014019601868304901401960002329490B6012490B601B49254B196023491A4B9F
:400E800019602A492A4B19602A490A4B19601368802109060B43136010BDC046240100208C0E0740880E0740300100200C0F074040010020000F07403C010020880F0740B0
:400EC000CC0F07404C010020080307405001002060000740FFFEFFFF440100204003074068000740ED0F0000C00F074008020740340100203801002004020740FFFFFEFF07
:400F00008C0F07405401002040020740F3070000800F0740C80F0740480100206400074000000740FF5FFFFFFFFCFFFFFF0F0000400F0740170300000E4B70B500251E1C98
:400F40000D4CE41AA410A54204D0AB00F35898470135F8E700F06CF8084B00251E1C084CE41AA410A54204D0AB00F35898470135F8E770BD3C1000003C1000003C100000FF
:400F800044100000031C8218934202D019700133FAE770470023C25C0133002AFBD1581E704700000000000050536F4320342050696F6E65657200005072696D6572612005
:400FC00066696C6100000000536567756E64612066696C6100000000556C74696D612046696C61000000000040000000140000005400000000300F40000400400F4000040C
:40100000030405060708090A0B0C0E0F101112131415161718191B1C1D1E1F2021222325262728292A2B2E2F3031323334350000F8B5C046F8BC08BC9E4670476501000094
:4010400075040000F8B5C046F8BC08BC9E4670473D01000068100000C8000020200000007000000000000000000000003F0000000000E02EC05D00001800000000366E01DC
:401080000404040000000000000000000000000000000000000000000000000000000000000000000000000000000000000000000000000000000000000000000000000024
:4010C00000000000000000000000000000000000000000000000000000000000000000000000000000000000000000000000000000000000000000000000000000000000F0
:4011000000000000000000000000000000000000000000000000000000000000000000000000000000000000000000000000000000000000000000000000000000000000AF
:40114000000000000000000000000000000000000000000000000000000000000000000000000000000000000000000000000000000000000000000000000000000000006F
:40118000000000000000000000000000000000000000000000000000000000000000000000000000000000000000000000000000000000000000000000000000000000002F
:0200000490303A
:0200000029AA2B
:0200000490402A
:200000000000000000000000000000000000000000000000000000000000000000000000E0
:0200000490501A
:0C000000000204C81193110104CD3B3D27
:0200000490600A
:0100000001FE
:00000001FF