:400000000080002011000000A1060000A106000008B5044B1A6803F53F5302331A6000F047FB00BFFA46004010B5054C237833B9044B13B10448AFF300800123237010BDE7
:400040003081FF1F00000000800C0000084B10B51BB108490848AFF300800848036803B910BD074B002BFBD0BDE81040184700BF000000003481FF1F800C0000C880FF1F1A
:40008000000000000A4B1B7813F0020F03D0084A43F004031370064B1B7803F00303012B04D1034B1A786FF300021A70704700BF6081FF1F074B1B7813F0010F04D0054A26
:4000C00043F0020313707047024A137843F00403137070476081FF1F044B1B78072B01D0032B02D10022014B1A7070476081FF1F08B50449044800F04DF9044B188000B18C
:40010000588008BD7D070000650700004C81FF1F08B51238722800F2CC80DFE800F03ACACACACACAAECACACACACACACACA808ACA94CACACA9ECACACACACACACACACACACA75
:40014000CACACACACACACACACACACACACA626CCA76CACACACACACACACACACACACACACACACACACACACACACACACACACACACACACACACACACACACACACACACACACACACACACACA19
:40018000CACACACACACACACACACACACACA444ECA58004C4A1379591C117113443020187200F030FB85E0474A1379591C117113443120187200F026FB7BE0424A1379591C40
:4001C000117113443220187200F01CFB71E03D4A1379591C117113443320187200F012FB67E0384A1379591C117113443420187200F008FB5DE0334A1379591C11711344AF
:400200003520187200F0FEFA53E02E4A1379591C117113443620187200F0F4FA49E0294A1379591C117113443720187200F0EAFA3FE0244A1379591C117113443820187240
:4002400000F0E0FA35E01F4A1379591C117113443920187200F0D6FA2BE01A4B1B7943B3013B184A1371082000F0CCFA202000F0C9FA082000F0C6FA1BE00422124913481D
:4002800000F0E9FC50B9124A137843F001036FF3820313700F4800F0C1FA07E00C4A137843F0040313700C4800F0B8FA0022054B1A72044B1B79032B02D90022014B1A7178
:4002C00008BD00BF4C81FF1F5481FF1F840C00006081FF1F8C0C0000940C000008B5034B187800F0070000F0B9FA08BD6081FF1F08B562B60022184B1A7000F013FB17489B
:4003000000F038FB42F2107000F05CFB00F0ACFB134800F0D1FB00F0C3FB00F065FA00F0F5FB104800F000FC00F0E4FB00F026FC0D4800F031FC00F015FC0C4B5B889BB2F5
:4003400033B10A4C608880B2FFF7E2FE00236380FFF7C4FFF1E700BF6081FF1FF100000085000000B5000000D90000004C81FF1F70B506460D46102408E02046B047A847E3
:4003800018B140EA0414A0B270BD6408002CF4D1002070BD08B5FFF7EBFF0246264B1B78032B40D8DFE803F0020A1A2A00283ED0214B588001221A70002008BD18B90020D3
:4003C0001D4B187008BD1C4B5888824202D102221A7008BD184B5A80002008BD20B90322154B1A70002008BD134B5B88984220D0114B588001221A70002008BD20B90E4B05
:4004000000201870588008BD0B4B5B88984205D0094B588001221A70002008BD0222064B1A70002008BD0020034B187008BD002008BD002008BD00BF5881FF1FFEE700BF0E
:40044000F0B40022174611E050F82760F3B226F0FF0608E001EB420511F812406D78A5550132013BDBB2002BF4D101371A2FEBD9F0BC7047064B1B78DBB203F00701054A35
:4004800011701B09013213704422034B1A707047CF0100496E5800407658004008B50A46002100F0D0FB08BD38B50922284B1A801B23284A13701925023215801821023245
:4004C0001170002402321480023213700222224B1A7008224FF040231A70032103F5007319701E4B1B78DBB21D490B701D4B1A8041F25122023B1A800CE01B4B1B7803F08E
:40050000010343EA440404F003044FF4F07000F053FB013D0DB1032CEFD115B90320FFF78DFF124B4FF480721A8007221A7000220F490A704820023108701A700222033B36
:400540001A700C4A137843F00703137038BD00BF80400040824000400043004008010049A146004022420040254200400440004006400040A243004008B500F059FB08BD5E
:4005800038B572B6354A137843F00403137000240CE0334D630019194A0011462A44084691882858FFF77AFF0134E4B2082CF0D900240BE02A49A300181942008818802233
:4005C000C16B806BFFF7D8FF0134E4B2002CF1D024494FF09040FFF733FF234A137843F0020313701032137843F0020313701F4C237843F040032370A2F58632513A13780C
:4006000043F010031370082219491A48FFF7B4FF0A2219491948FFF7AFFF082218491948FFF7AAFF082218491848FFF7A5FF184A137843F008031370164D61232B70FFF791
:4006400033FF81232B700122134B1A70FFF712FF0E2221461148FFF78FFF38BDE8460040A00C00006C00004803500140A043004054040048025100405C040048C0510040DD
:4006800068040048125100407004004822510040224300400048004004000840B043004008B500F099FA03680C2B00D1FEE7FEE708B5104E104D16E029686B68AC68002243
:4006C00004E051F8040B43F8040B0432A242F8D1E868002203E0002143F8041B04328242F9D11035013E002EE6D100F07BFAFFF7FFFDFEE701000000080D000008B5104A2B
:40070000104B1A60104A136843F40073136000230AE0032B03D80D4A52F8231000E00C490C4A42F8231001332F2BF2D90A4B1A780A4B1A70074A0A4B1A60FFF721FF08BDF6
:400740000004FA050CED00E014ED00E000000000A10600000080FF1FBC760040C080FF1F08ED00E0044A137803F0E00300F01F0018431070704700BF20510040014B187836
:4007800000097047115100407222084B1A70202201331A700622A3F5B1731A70472210331A70002251331A70704700BF8965004010B500F009FA04460A4A137843F02003B7
:4007C00013700132137843F010031370A2F20112137843F01003137000F032F8204600F0F7F910BD9965004008B5054B1B7823B9FFF7CAFF0122024B1A70FFF7D9FF08BDC1
:400800005C81FF1F034B1B7813F0040FFAD1024B18707047696400404964004038B5074B1B782BB938BDFFF7EDFF0134A4B201E005460024285D0028F5D138BD5C81FF1FAA
:40084000054A137843F0020313701032137843F002031370704700BFA2430040044A137803F0F80300F0070018431070704700BF00510040084A137843F001031370103247
:40088000137843F00103137002F64D32137843F001031370704700BFA3430040014B1870704700BF034F0040014B1880704700BF044F0040014B1880704700BF064F0040E3
:4008C00008B5154A137803F0010313700232137803F0FC031370114B1A7802F0CF021A701A7842F030021A701A7802F0F0021A701A7842F00F021A70094A137843F0010374
:4009000013700920FFF7D0FF0920FFF7D3FF0020FFF7C4FF08BD00BF004F00400B4F0040014F004008B5054B1B7823B9FFF7C8FF0122024B1A70FFF79DFF08BD5E81FF1FB8
:40094000014B1B681864704708ED00E04001C0B2014B1870704700BF00E400E00122014B1A60704700E100E00122014B1A60704780E100E010B50446FFF7F6FF2046FFF747
:40098000DFFF0720FFF7E2FFFFF7E8FF10BD00BF084A137843F0020313701032137843F00203137002F65932137843F001031370704700BFA3430040014B1870704700BF24
:4009C0000F4F0040014B1880704700BF104F0040014B1880704700BF124F004008B51F4A137803F0010313701D4B1A7802F0FC021A701A7802F0F3021A701A7842F00C02F1
:400A00001A701A7802F07F021A701A7842F080021A701A78D2B21A7009331A7802F0CF021A701A7842F030021A701A7802F0F0021A701A7842F00F021A700A4A137843F021
:400A40000103137042F20F70FFF7BCFF42F20F70FFF7BEFF0020FFF7AFFF08BD0C4F00400E4F00400D4F004008B5054B1B7823B9FFF7B4FF0122024B1A70FFF789FF08BD66
:400A80005F81FF1F014B1B685864704708ED00E04001C0B2014B1870704700BF01E400E00222014B1A60704700E100E00222014B1A60704780E100E010B50446FFF7F6FF21
:400AC0002046FFF7DFFF0720FFF7E2FFFFF7E8FF10BD00BF704700BF014B1B68D864704708ED00E04001C0B2014B1870704700BF03E400E00822014B1A60704700E100E01C
:400B00000822014B1A60704780E100E008B5FFF7F7FF0448FFF7E0FF0720FFF7E3FFFFF7E9FF08BDD50A000010B50446FFF7E8FF2046FFF7D1FF0720FFF7D4FFFFF7DAFFAB
:400B400010BD00BF704700BF014B1B689864704708ED00E04001C0B2014B1870704700BF02E400E00422014B1A60704700E100E00422014B1A60704780E100E008B5FFF75E
:400B8000F7FF0448FFF7E0FF0720FFF7E3FFFFF7E9FF08BD450B000010B50446FFF7E8FF2046FFF7D1FF0720FFF7D4FFFFF7DAFF10BD00BF000000000230800803D000BF7D
:400BC00001380046FCD17047EFF3108072B6704780F31088704700BF014B1868704700BF2C81FF1F0E4B70B51E460E4C0025E41AA410A54204D056F8253098470135F8E7AE
:400C000000F070F8084B094C1E46E41AA4100025A54204D056F8253098470135F8E770BDF00C0000F00C0000F00C0000F80C000010B5431E0A44914204D011F8014B03F897
:400C4000014FF8E710BD03460244934202D003F8011BFAE7704730B582B1451E013915F8013F11F8014FA34206D1EC431444E04201D0002BF3D11C46181B30BD104630BD4E
:400C80000000000031323437000000000A0D4F4B0A0D00000A0D4552524F520A0D000000004F00401800305100404000F05100401000000001400010001401400006801A67
:400CC0000140800100400140000A004C014000020050014020000000001A0140D403004880004300F8B500BFF8BC08BC9E4670474D000000FD060000F8B500BFF8BC08BC77
:400D00009E46704729000000180D0000C880FF1F68000000A0000000000000000000000000000000000000000000000000000000000000000000000000000000E20C00006E
:400D4000000000000000000000000000000000000000000000000000000000000000000000000000000000000000000000000000000000000000000000000000CC80FF1F09
:400D80000000000000000000000000000000000000000000000000000000000000000000000000000000000000000000000000000000000000000000000000000000000033
:400DC00000000000000000000000000000000000000000000000000000000000000000000000000000000000000000000000000000000000000000000000000000000000F3
:400E000000000000000000000000000000000000000000000000000000000000000000000000000000000000000000000000000000000000000000000000000000000000B2
:400E40000000000000000000000000000000000000000000000000000000000000000000000000000000000000000000000000000000000000000000000000000000000072
:020000040003F7
:0200000480007A
:40000000044F00400252004001640040026500400402014001030140020501405E08014038090140040B01400215014001170140461801403A1901400B1A0140401B01401A
:4000400005400140064101400D42014007430140024501400246014004480140044901400C4D0140045001400151014001200A4B0D20166361806440890F89728A38B8803B
:40008000BE40D804DF011A02AE01E010002001010306070308140C1011011203130E170C190C1B031C101E0C200C221124092610281C2A022F08301F330F36203B083E4049
:4000C0004003474049FF4A074BFF4C404D204EF04F055008580459045A045C115D015F01604061A862406320810887018A018C028E049001930394069506970198069C0175
:40010000A302A601AA01AB06AC04AE02AF05B006B107B308B601BB02BE40BF04C012C105C5ECC6B0C80BC9FFCAFFCBFFCEF0CF44D00CD401D804D904DA04DB04DC11DD11E5
:40014000DF01E6C0EA40EB020020016004200601074009020A250E800F021108136015021728188019401E801F80210322062608272028042A012B012F02310232083404EC
:40018000360237283A083B013E0942094508481049014A024B01501055045609570259615A0892109B40C0D3C29FC477CA1DCCE3CEC3D04CD208D60F8F409210B610E010AF
:4001C000E620EA01EE0801010A0210011B011C062006210125022804300132063503380839203E05580459045C105F01800681048218850E86108711880689028A088C4041
:400200008E208F20908092209320941496089A0A9C209D0E9EC09F11A006A119A208A306A4E1A506A8E1A91FAC01AF01B01EB110B308B4E0B520B601B707B902BA02BB8022
:40024000BF14D602D712D804D904DB04DC11DD10DF0100240142060808980B400E810F0210421114144815021720180819821B011C801D0822652404270829952C502E0891
:400280003241372038203A023B883F025A08680269146A2470907104720273149080910292109540962597409A089B209F08A010A240A508A701AF80C04FC29FC45FCACFA3
:4002C000CC29CE8FD6028B089101930699049B01B104B302B501B708D904DF01002401800380088809200A8010801354184419151B882001212022012320250227162990CD
:400300002B8031053240371238AA3B403E10404143084990501053405A02622063018048881089028B848C858D408F21908892909314954097C899809C809D119F04A08059
:40034000A220AB04B040C00FC20FC40FCA0DCCABCE2FD00BD20CD601D80CE6203108328034803701CCF003409C809F01A508A680C010128014805B028F409B429C809F01C4
:40038000A508A680AF02C430D640EE4067086F409B409F01A508D880DC400C08C204B408EE089F01A508AF04EE108B019F01A908EA8010801280710888808E80A108B108E3
:4003C000C408DC01E202E601EC0400020C0210031C0300FE9C014318FF03000481000020000273088F033000F3000C20000080000300000308000003040000000C030000B8
:40040000020000030F031C200010EC0C0000A20000000044450603000100CE000CFFFFFF62A0F0410C00000018000000040404041111000100000000000040020010301039
:4004400000101012000000000000000000000000000000000007070000000000800040808000800000000000F0FB0B0000000000203F1F0000000000000000000000000088
:40048000000000000000000000000000000000000000000000000000000000000000000000000000000000000000000000000000000000000000000000000000000000003C
:4004C00000000000000000000000000000000000000000000000000000000000000000000000000000000000000000000000000000000000000000000000000000000000FC
:4005000000000000000000000000000000000000000000000000000000000000000000000000000000000000000000000000000000000000000000000000000000000000BB
:40054000000000000000000000000000000000000000000000000000000000000000000000000000000000000000000000000000000000000000000000000000000000007B
:0200000490006A
:0400000000004005B7
:0200000490105A
:04000000BC90ACAF55
:0200000490303A
:02000000F3D734
:0200000490402A
:4000000000000000000000000000000000000000000000000000000000000000000000000000000000000000000000000000000000000000000000000000000000000000C0
:400040000000000000000000000000000000000000000000000000000000000000000000000000000000000000000000000000000000000000000000000000000000000080
:400080000000000000000000000000000000000000000000000000000000000000000000000000000000000000000000000000000000000000000000000000000000000040
:4000C0000000000000000000000000000000000000000000000000000000000000000000000000000000000000000000000000000000000000000000000000000000000000
:0200000490501A
:0C00000000012E16106900012E1C0440A7
:00000001FF