:400000000080002011000000B5040000B504000008B5044B1A6803F53F5302331A6000F069FA00BFFA46004010B5054C237833B9044B13B10448AFF300800123237010BDA2
:400040003881FF1F00000000FC180000084B10B51BB108490848AFF300800848036803B910BD074B002BFBD0BDE81040184700BF000000003C81FF1FFC180000C880FF1FFA
:40008000000000002DE9F84381460E4617469846002408E0B847054628B1C0470D2D05D009F804500134731E9C42F3DB002309F804300A20C047BDE8F88300BFF0B583B04D
:4000C00005460F4616460023ADF80630304600F0C9FA0C4B0C4A39462846FFF7D3FF0DF106020A49284600F061FBC4B214B9084800F0B8FA012CE9D100232B70BDF90600D2
:4001000003B0F0BD4D060000210600000019000004190000C1B170B40E46012902D100B2C11714E004B2E51720462946012308E000FB05F204FB0122A0FB0401114401337A
:40014000DBB2B342F4D302E001200021704770BC704700BF10B50024084A63210848FFF7ADFFC0B2074B1870FF2803D1064800F079FA00E00124002CEED010BD2819000013
:40018000C881FF1F3883FF1F4819000030B583B00B4B1C780B4D009423460B4A6421284600F0D2FA2A4664210848FFF787FF084B185514B1013CE4B2ECE703B030BD00BFF8
:4001C0003883FF1F6481FF1F6C190000C881FF1F2C82FF1F70B582B01F4A64211F48FFF76DFF1F4B18801F4B984232D00546002000211D4BC3E900011C4B1C781C4B1E579D
:4002000021462846FFF786FF72B2D31701FB02F100FB0311A2FB00230B44134ED6E9000112184B41C6E9002314B1013CE4B2E5E70A4C00922B460F4A6421204600F084FA3B
:40024000204600F00FFA064BB3F90020054B9A42C2D102B070BD00BF8C190000C881FF1F6081FF1F19FCFFFF3083FF1F3883FF1F2C82FF1FA419000008B562B600F0C2F9D4
:40028000FFF768FFFFF782FFFFF7A4FFF8E700BFFEE700BFF0B40022174611E050F82760F3B226F0FF0608E001EB420511F812406D78A5550132013BDBB2002BF4D1013773
:4002C000082FEBD9F0BC7047064B1B78DBB203F00701054A11701B09013213704422034B1A707047CF0100496E5800407658004008B50A46002100F01EFA08BD38B5192542
:40030000234B1D80182202331A70022203F27E231A7008224FF040231A70032103F5007319701C4B1B78DBB21B490B701B4B1A8041F25122023B1A8000240CE0184B1B781E
:4003400003F0010343EA440404F003044FF4F07000F0AAF9013D0DB1032CEFD115B90320FFF796FF0F4B4FF480721A8007221A7000220D490A704820023108701A700222EA
:40038000033B1A70094A137843F00103137038BD8040004008010049A146004022420040254200400440004006400040A243004008B500F0B5F908BD38B572B6304A1378BB
:4003C00043F00403137000240CE02E4D630019194A0011462A44084691882858FFF788FF0134E4B2082CF0D900240BE02549A3001819420088188022C16B806BFFF7D8FF2C
:400400000134E4B2002CF1D01F494FF09040FFF741FF1E4A137843F0020313701032137843F0020313701A4C237843F040032370A2F58632513A137843F0100313700A22BD
:4004400014491548FFF7B4FF082214491448FFF7AFFF144A137843F008031370124D61232B70FFF74BFF81232B7001220F4B1A70FFF72AFF0E2221460D48FFF799FF38BD56
:40048000E8460040B41900002400004803500140A0430040D0020048C0510040DC02004812510040224300400048004004000840B043004008B500F007F903680C2B00D1DE
:4004C000FEE7FEE708B5094B1A681044084BC31A802B02DC054B186005E000F0F5F80C2303604FF0FF32104608BD00BFCC80FF1F4083FF1F08B5104E104D16E029686B680F
:40050000AC68002204E051F8040B43F8040B0432A242F8D1E868002203E0002143F8041B04328242F9D11035013E002EE6D100F0D1F8FFF7A1FEFEE701000000D81B0000F8
:4005400008B5104A104B1A60104A136843F40073136000230AE0032B03D80D4A52F8231000E00C490C4A42F8231001332F2BF2D90A4B1A780A4B1A70074A0A4B1A60FFF786
:400580001BFF08BD0004FA050CED00E014ED00E000000000B50400000080FF1FBC760040C080FF1F08ED00E07222074B1A70202201331A7006225F3B1A70472210331A70B1
:4005C000002251331A7070478865004010B500F073F804460A4A137843F0200313700132137843F0100313700232137843F01003137000F049F8204600F062F810BD00BF49
:400600009865004008B5054B1B7823B9FFF7CCFF0122024B1A70FFF7D9FF08BD5481FF1F084B1B78DBB213F0200F06D0064A1078C0B213F01E0F02D170470020704700204A
:40064000704700BF6965004048650040034B1B7813F0040FFAD1024B187070476B6500404B65004038B5074B1B782BB938BDFFF7EDFF0134A4B201E005460024285D0028A6
:40068000F5D138BD5481FF1F054A137843F0010313701032137843F001031370704700BFA2430040000000000230800803D000BF01380046FCD17047EFF3108072B6704736
:4006C00080F31088704700BF014B1868704700BF3081FF1F0E4B70B51E460E4C0025E41AA410A54204D056F8253098470135F8E701F060FA084B094C1E46E41AA4100025D5
:40070000A54204D056F8253098470135F8E770BDC01B0000C01B0000C01B0000C81B000010B5431E0A44914204D011F8014B03F8014FF8E710BD03460244934202D003F82E
:40074000011BFAE7704700000CB430B5164B0C1E9DB01D6804DA8B232B604FF0FF301EE04FF40273ADF814300CBF234604F1FF33049307934FF6FF7302900690ADF8163049
:40078000209A21AB02A92846019300F09DF8431CBCBF8B232B6014B1029B00221A701DB0BDE8304002B070473081FF1F0EB430B59CB01FAC4FF4017254F8045BADF814204E
:4007C0000290069000F01EF80B4B03900B9300230F9314934FF6FF7307900848ADF816302A46234602A90068019400F0BDF91CB0BDE8304003B07047010800003081FF1F05
:4008000000207047034613F8012B002AFBD1181A013870472DE9F0478E6882469E420C46914698463ED88A8912F4906F3AD02568096902236F1A656905EB450595FBF3F5F2
:400840007B1C43449D4238BF1D4653050FD5294600F0B4FF064698B13A462169FFF760FFA38923F4906343F08003A38113E02A4601F002F8064670B92169504600F052FFAB
:400880000C23CAF80030A3894FF0FF3043F04003A381BDE8F08726613E44266046466561ED1BA560464528BF464649463246206800F01DFFA36800209B1BA36023681E446F
:4008C0002660BDE8F08700002DE9F04F9DB003938B8980461C060D4616460DD50B695BB9402100F06BFF2860286118B90C23C8F80030CDE040236B610023099320238DF8EA
:400900002930DFF89CB130238DF82A3037463C4614F8013B1BB9B7EB060910D003E0252BF9D02746F3E74B46324629464046FFF771FF013000F0A780099B4B4409933B78EB
:40094000002B00F0A08000234FF0FF3204930793059206938DF853301A930126052221784E4800F0B6FE671C049B38B14B4A3C46801A06FA00F018430490EFE7D90644BF1F
:4009800020228DF853201A0744BF2B228DF8532022782A2A03D0079A00210A200BE0039A111D12680391002A10DA524243F00200079204900BE027463B780134303B092B3A
:4009C00003D800FB02320121F5E701B107923B782E2B1ED17B782A2B0AD1039B02371A1D1B680392002BB8BF4FF0FF33059310E0002319460593781C0A2407463A780130B9
:400A0000303A092A03D804FB01210123F5E703B1059103223978224800F05BFE40B14023CBEB000003FA00F0049B013718430490397806221B487E1C8DF8281000F049FEC3
:400A400088B1194B33B9039B073323F007030833039314E003AB00932A46144B04A94046AFF3008007E003AB00932A460F4B04A9404600F043FAB0F1FF3F824603D0099B5E
:400A80005344099342E7AB895B0601D4099801E04FF0FF301DB0BDE8F08F00BFF8190000FE190000021A000000000000150800004B1C70B50E46144602D14FF0FF3070BDC7
:400AC0009389CDB223F020039381536B526883B1A36B9A4207DA23685A1E226003F8016C636801331FE0214600F0BAFD0028F2D0E3E72169236851B1994208D213F8011CF9
:400B00008D4204D1013B0132236062600CE0E36304F1440363630323A3632346226403F8466F236001236360284670BD10B50C46496B69B104F14403994201D000F0F2FDAD
:400B4000236C00206063636013B1E36B236010BD23694FF0FF30236000236360A38943F02003A38110BD00002DE9F04FDFF89C9207460D46CA46ADF5257D0193002346932A
:400B800047939E4B0DF10C08A2939D4BDFF874B2CDF82081A3931478002C00F02781D9F8003023445B7803F0080303F0FF01F3B16B68002B10DD2B68DAF800001978014464
:400BC00049780C0710D5479901330131479169682B6001396960EBE7A39B2946384600929847009A0028E6D0561C3246D3E7252C02F1010652D14391459153782A2B02BF3C
:400C00001023961C43930A2231783446A1F13003092B06F1010605D8459B02FB0313303B4593F1E70322774800F053FD40B134460123CBEB000003FA00F0439B0343439378
:400C4000661C2478672C16D8652C7FD2472C07D8452C7BD2002C00F0CB80252C1ED077E05B2C51D002D8582C3ED071E0632C57D0642C3FD06CE0702C32D007D86E2C55D0A4
:400C80003AD8692C64D1002344933BE0752C31D0782C29D0732C5BD102233FE06B68002B0DDD2B681A78944240F0A08001336A682B60479B013A01336A60479395E7A39B82
:400CC0002946384698470028EBD04698002800F08F80AB8913F0400F18BF4FF0FF3089E0439B43F020034393439B43F400734393102302E00A2300E008236E2C449301DD08
:400D000004230BE0032309E03146404600F074FB0646439B43F040034393012349931BE0439B43F0400343930023F7E7439AD0063FF55BAF12F0010F019A479B02F1040122
:400D40000191126814BF138013604EE70523E5E7032349930A2344936B68002B03DD439B590611D518E0A39B2946384698470028F5D0AAE7479A013247926A68013A002ABA
:400D80006A6013DD01332B602B68DAF800101A780A4452781207EDD4499B022B0DDC01AB2A4643A9384600F0CFF919E0A39B2946384698470028E7D087E7042B06DC01AB7C
:400DC0002A4643A9384600F025FA09E00E4B002B3FF40BAF01AB2A4643A93846AFF30080012803D002287FF400AF6EE7469801E04FF0FF300DF5257DBDE8F08FB10A0000BB
:400E00002D0B0000FE190000000000003481FF1F2DE9F04791461F460A698B6806469342B8BF1346C9F8003091F843200C46DDF8208012B10133C9F800302368990642BFF9
:400E4000D9F800300233C9F80030256815F0060510D104F1190A07E00123524639463046C04701301AD00135E368D9F800209B1A9D42F1DB94F843302268003318BF012372
:400E800092060FD5E118302081F843005A1C94F845102244023382F8431003E04FF0FF30BDE8F08704F1430239463046C0470130F4D02268D9F80050E36802F00602042A3C
:400EC00008BF5D1B2269A3680CBF25EAE57500259342C4BF9B1AED184FF000091A344D4509D00123224639463046C0470130D5D009F10109F3E70020BDE8F0872DE9F043F0
:400F000017460A7E85B06E2A984606460C460C9B01F1430E00F0AE8011D8632A22D009D8002A00F0BB80582A40F0CA8081F84520834955E0642A1ED0692A1CD0C0E0732ACA
:400F400000F0B08009D86F2A2ED0702A40F0B8800A6842F020020A603EE0752A24D0782A3AD0ADE01A6801F14205111D1960136884F84230A8E021681A6811F0800F02D0FD
:400F8000111D196008E011F0400F02F10401196002D0B2F9003000E01368002B3CDA2D225B4284F8432037E021681A6811F0800F02D0111D196007E011F0400F02F1040173
:400FC000196001D0138800E01368227E5C496F2A14BF0A2208221BE078225A4984F845202268186812F0800F00F104051D6003D1550601D5038800E00368D00744BF42F098
:40100000200222601BB9226822F0200222601022002084F8430001E049490A226568002DA56008DB206820F0040020602BB9002D7DD175460CE0002B79D07546B3FBF2F085
:4010400002FB1033CB5C05F8013D03460028F5D1082A0BD12368DA0708D5236962689A42DEBF302305F8013C05F1FF35C5EB0E0323612EE008681A6810F0800F496903D061
:40108000101D1860136808E010F0400F02F104001860136801D0198000E0196000232361754616E01A68111D1960156800216268284600F00EFB08B1401B6060636804E059
:4010C00004F1420584F8422001232361002384F84330CDF800803B4603AA21463046FFF797FE013002D14FF0FF3026E023692A4639463046C0470130F5D023689B0710D5C9
:40110000002504F1190907E001234A4639463046C0470130E7D00135E368039A9B1A9D42F2DBE068039B9842B8BF184605E00B7804F1420584F842308AE705B0BDE8F08310
:40114000091A00001A1A00002DE9F84315468A6880460C4632B98A69002A0CBF01224FF0FF328A602268DFF8A890D10658BF1A684FF000065EBF111D19601768A069F8B9C7
:4011800023680136DA065EBF2B681B783B702A686B6802F101022A60A26803F1FF3302F1FF326B6058BF0137A260E2B1002BE5DCD4F880312946404698470028DED012E0B2
:4011C000012806D12B681A7863699B5C002BD7D119E0022807D12B68D9F800201B7813445B781B07CCD5236813F0100305D1E2680132E260A26902B13B70236900201E4488
:401200002661BDE8F883002EEDD1BDE8F88300BF3481FF1F2DE9F04F0C469A46724B87B08346164693E8070003ABA76883E807006E4BA1696E4A04F11C09032918BF1A4620
:401240007B1EB3F5AE7F84BF40F25D13A360236888BF6FF4AE7543F4506323604B4600928CBF7F1900274FF000083168019303AB53F828000222097800F02BFA019B002813
:4012800033D0B8F1010F0BD162682AB908226260226842F400722260226822F4A0620CE0B8F1020F0AD1226802F4C061B1F5007F1BD11021616042F480722260A268511E5F
:4012C000A16092B132685D1C511C316012781A707368013B002B736006DCD4F88031314658469847002841D12B4608F10108B8F1030FBAD162680AB90A22626062683D495F
:401300006069891A019300F077F8019B4FF000081D46A36863B3316860690A78805C38B3302A226808D1100506D508F1010857B10133013FA36006E022F4106222600B789B
:40134000013505F8013C7368013B002B736003DD33680133336005E0D4F8803131465846984728B9A368013BA360D2E74FF000082368D9050CD54D4508D915F8011C6F1EB1
:40138000D4F87C313246584698473D464D4527D0226812F010021BD12A70636849465846009EB0472268DAF8003012F0200F07D1D20705D51A1DCAF800201B68188004E0A2
:4013C0001A1DCAF800201B681860E3680133E3602369C9EB050545441D442561002000E0012007B0BDE8F08F2C1A00006515000059140000481A000070B50B78441E5E2B3F
:4014000013BF4A1C8A1C4B78002108BF012100F1FF0504F8011FAC42FBD10BB9501E70BD81F001041146C4540D784A1C2D2D06D05D2D0FD00DB12B46F4E7084670BD4E7823
:401440005D2EF8D0B342F6DC023101339E42C454FBDCE9E7104670BD2DE9F0470F4680463F48D0F800903D4615F8014B09EB0400407800F0080000F0FF0608B12F46F2E702
:401480002D2C03D1BD1C7C78012603E02B2C04BF7C78BD1C13B1102B0AD15BE0302C57D1287800F0DF0058284DD16C7810230235002E14BF4FF0004C6FF0004CBCFBF3FA72
:4014C0000027384603FB1ACC09EB040E9EF801E01EF0040F01D0303C0BE01EF0030E1BD0BEF1010F0CBF4FF0370E4FF0570ECEEB0404A34210DDB7F1FF3F0AD0504506D81B
:4015000001D1644503DC03FB0040012701E04FF0FF3715F8014BD7E77B1C0CD1002E4FF0220314BF4FF000406FF00040C8F800302AB9BDE8F08706B1404272B107B1691EFD
:401540001160BDE8F0873024002BB1D10823AFE70A23ADE7302CA3D0AAE7BDE8F08700BF3481FF1F2DE9F0470E4680463B48D0F80090354615F8014B09EB0400407800F097
:40158000080000F0FF0708B12E46F2E72D2C03D1B51C7478012703E02B2C04BF7478B51C13B1102B0AD153E0302C4FD1287800F0DF00582845D16C78102302354FF0FF3C05
:4015C000BCFBF3FC03FB0CFA00266FEA0A0A304609EB040E9EF801E01EF0040F01D0303C0BE01EF0030E1AD0BEF1010F0CBF4FF0370E4FF0570ECEEB0404A3420FDD002EF7
:4016000008DB604506D801D1544503DC03FB0040012601E04FF0FF3615F8014BD8E7002E07DA2223C8F800304FF0FF302AB9BDE8F08707B1404272B106B1691E1160BDE8C6
:40164000F0873024002BB9D10823B7E70A23B5E7302CABD0B2E7BDE8F08700BF3481FF1F2DE9F0410C46496B04F1440399421AD14FF4806100F0A2F818B94FF0FF30BDE859
:40168000F0814FF48063A36394F84630606380F8FF3394F8453000F2FD30437094F844300370206012E0A66B77003A4600F0E4F805460028E1D000EB060801463246404630
:4016C000FFF72EF8C4F800806563A7630020BDE8F08110B5C9B202449042034605D01C7801308C42F8D1184610BD002010BD884210B501EB020301D8421E0BE09842FBD255
:401700008118D21AD34204D013F8014D01F8014DF8E710BD994204D011F8014B02F8014FF8E710BD38B50546002944D051F8043C0C1F002BB8BFE41800F0D4F81E4A13688F
:40174000114613B96360146030E0A3420DD92268A018834201BF18685B681218226063600C6023E0A24203D813465A68002AF9D118681918A1420BD121680144581882420C
:40178000196013D110685268014419605A600DE002D90C232B6009E021686018824201BF106852680918216062605C602846BDE8384000F098B838BD5C81FF1F70B5CD1C17
:4017C00025F0030508350C2D38BF0C25002D064601DBA94202D90C23336046E000F082F8234B1C681A462146A1B10B685B1B0ED40B2B03D90B60CC18CD501EE08C420BBFD7
:4018000063684B681360636018BF0C4615E00C464968E9E7174C23681BB9304600F052F820602946304600F04DF8431C18D0C41C24F00304A0420DD12560304600F053F8BF
:4018400004F10B00231D20F00700C31A0ED05A42E25070BD211A304600F034F80130EBD10C233360304600F03EF8002070BD00BF5C81FF1F5881FF1FF8B5074615460E469C
:4018800021B91146BDE8F840FFF798BF1AB9FFF749FF2846F8BD00F027F885420ED929463846FFF78BFF044650B131462A46FEF737FF31463846FFF735FF01E03046F8BDE7
:4018C0002046F8BD38B5064C0023054608462360FEF7F8FD431C02D1236803B12B6038BD3C83FF1F7047704751F8040C0028BEBF091851F8043CC0180438704700000000B6
:40190000256864004572726F722C2076616C6F7220696E6772657361646F206E6F20656E7465726F0D0A0000477261646F2064656C20706F6C696E6F6D696F3F0D0A477258
:4019400061646F203D2000004572726F722C2076616C6F7220696E6772657361646F206E6F2076616C69646F00000000436F6566696369656E746520646520785E25693FBA
:401980000D0A435F2569203D2000000050756E746F2061206576616C7561723F0D0A78203D2000006628256929203D2025690D0A0000000000510040100020510040500068
:4019C000F0510040100000000140001000140140000480180140800300400140000A004C014000020050014020000000001801405002004880004300232D302B2000686C30
:401A00004C006566674546470030313233343536373839414243444546003031323334353637383961626364656600004A1A00004D1A0000501A0000412D46612D66383904
:401A400030313233343536375D002B2D0030300078580000202020202020202020282828282820202020202020202020202020202020202088101010101010101010101085
:401A800010101010040404040404040404041010101010101041414141414101010101010101010101010101010101010101011010101010104242424242420202020202BE
:401AC0000202020202020202020202020202021010101020000000000000000000000000000000000000000000000000000000000000000000000000000000000000000068
:401B000000000000000000000000000000000000000000000000000000000000000000000000000000000000000000000000000000000000000000000000000000000000A5
:401B40000000000000000000000000000000000000000000000000000000000000000000000000000000000000000000000000000000000000000000000000000000000065
:401B800000000000000000000000000000000000000000000000000000000000000000000000000000000000000000000000000000000000F8B500BFF8BC08BC9E467047A6
:401BC0004D00000041050000F8B500BFF8BC08BC9E46704729000000E81B0000C880FF1F7000000008020000000000004083FF1F00000000541B0000741B0000941B000039
:401C000000000000000000000000000000000000F6190000000000000000000000000000000000000000000000000000000000000000000000000000000000000000000095
:401C400000000000000000000000000000000000D080FF1F531A00000000000000000000000000000000000000000000000000000000000000000000000000000000000089
:401C80000000000000000000000000000000000000000000000000000000000000000000000000000000000000000000000000000000000000000000000000000000000024
:401CC00000000000000000000000000000000000000000000000000000000000000000000000000000000000000000000000000000000000000000000000000000000000E4
:401D000000000000000000000000000000000000000000000000000000000000000000000000000000000000000000000000000000000000000000000000000000000000A3
:401D40000000000000000000000000000000000000000000000000000000000000000000000000000000000000000000000000000000000000000000000000000000000063
:020000040003F7
:0200000480007A
:400000000252004003650040141801403A190140691A01404F1B0140014C0140074D01400250014061806440887289388B0F800886048801A101A202A401AA02AC01B002F3
:40004000B204B401B501B608BE41BF10D418D804D904DB04DF01010A0308052906020C410D020E0A0F2010221248168017141A011B151C101D211E0A1F102308250A26089F
:4000800027012B402C412D202F10354137143D803E823F284440452847404F20550156405B015C10600463026C226E046F08760277148601C0FEC2F0C47FCAF1CCF0CEF0C2
:4000C000D0F0D220D621D80CE00802030410060C070808100C090D800E100F131220152C16201743180C19711A111B06230C24142571270E281C2A02301F31C0330F3420E2
:40010000353039223B083E103F104002450449FF4A074BFF4C404D204EF04F055008580459045A045F01604061A862406320814882358334844A85F8863488138A2C8D204F
:400140008E488FC293019501980399909A149B2CA101A413A664A9F8AA40AF01B010B106B268B301B40FB518B7E0B908BA28BE01BF01C024C103C50CC6CEC70BC81DC9FF3D
:40018000CAFFCBFFCEF0CF44D00CD401D804D904DA04DB04DF01E6C0EA40EB020060010203100440051006410720082009090F081108132014201604180419021D141E4029
:4001C0002040211022042320254826102740282029042A012C412F083110320433103521361438803A043B043D803E06411044204640471048104B044F085040524055041C
:4002000057505D015E405F18633079017B4089488A0292049404984199019B089D6A9F40A101A204A308A540A740C0FFC24EC466CAB3CCE6CEDAD0E4D6F0871010407310E2
:4002400088409310C408DC01E20110011C0100001F10200001000004020000E308C000001C1C23E10008230033180C003F44000003FF000004E700180C800000003C00C288
:400280002C1F10380F0000C00000A202000004002604030001000CE024FFFFFF62A0F0410C00000000000211040404040000000100000000000040020010301000101012D2
:4002C00000000000000000000000000000000000800040808000800000000000000B0B000000000000000000000000000000000000000000000000000000000000000000A8
:4003000000000000000000000000000000000000000000000000000000000000000000000000000000000000000000000000000000000000000000000000000000000000BD
:40034000000000000000000000000000000000000000000000000000000000000000000000000000000000000000000000000000000000000000000000000000000000007D
:40038000000000000000000000000000000000000000000000000000000000000000000000000000000000000000000000000000000000000000000000000000000000003D
:4003C00000000000000000000000000000000000000000000000000000000000000000000000000000000000000000000000000000000000000000000000000000000000FD
:0200000490006A
:0400000000004005B7
:0200000490105A
:04000000BC90ACAF55
:0200000490303A
:020000009871F5
:0200000490402A
:4000000000000000000000000000000000000000000000000000000000000000000000000000000000000000000000000000000000000000000000000000000000000000C0
:400040000000000000000000000000000000000000000000000000000000000000000000000000000000000000000000000000000000000000000000000000000000000080
:400080000000000000000000000000000000000000000000000000000000000000000000000000000000000000000000000000000000000000000000000000000000000040
:4000C0000000000000000000000000000000000000000000000000000000000000000000000000000000000000000000000000000000000000000000000000000000000000
:0200000490501A
:0C00000000012E16106900012E20A8DA65
:00000001FF